{
  "contractName": "SaentisGulden",
  "abi": [
    {
      "inputs": [],
      "stateMutability": "nonpayable",
      "type": "constructor"
    },
    {
      "anonymous": false,
      "inputs": [
        {
          "indexed": true,
          "internalType": "address",
          "name": "owner",
          "type": "address"
        },
        {
          "indexed": true,
          "internalType": "address",
          "name": "spender",
          "type": "address"
        },
        {
          "indexed": false,
          "internalType": "uint256",
          "name": "value",
          "type": "uint256"
        }
      ],
      "name": "Approval",
      "type": "event"
    },
    {
      "anonymous": false,
      "inputs": [
        {
          "indexed": false,
          "internalType": "address",
          "name": "account",
          "type": "address"
        }
      ],
      "name": "Paused",
      "type": "event"
    },
    {
      "anonymous": false,
      "inputs": [
        {
          "indexed": true,
          "internalType": "bytes32",
          "name": "role",
          "type": "bytes32"
        },
        {
          "indexed": true,
          "internalType": "bytes32",
          "name": "previousAdminRole",
          "type": "bytes32"
        },
        {
          "indexed": true,
          "internalType": "bytes32",
          "name": "newAdminRole",
          "type": "bytes32"
        }
      ],
      "name": "RoleAdminChanged",
      "type": "event"
    },
    {
      "anonymous": false,
      "inputs": [
        {
          "indexed": true,
          "internalType": "bytes32",
          "name": "role",
          "type": "bytes32"
        },
        {
          "indexed": true,
          "internalType": "address",
          "name": "account",
          "type": "address"
        },
        {
          "indexed": true,
          "internalType": "address",
          "name": "sender",
          "type": "address"
        }
      ],
      "name": "RoleGranted",
      "type": "event"
    },
    {
      "anonymous": false,
      "inputs": [
        {
          "indexed": true,
          "internalType": "bytes32",
          "name": "role",
          "type": "bytes32"
        },
        {
          "indexed": true,
          "internalType": "address",
          "name": "account",
          "type": "address"
        },
        {
          "indexed": true,
          "internalType": "address",
          "name": "sender",
          "type": "address"
        }
      ],
      "name": "RoleRevoked",
      "type": "event"
    },
    {
      "anonymous": false,
      "inputs": [
        {
          "indexed": true,
          "internalType": "address",
          "name": "from",
          "type": "address"
        },
        {
          "indexed": true,
          "internalType": "address",
          "name": "to",
          "type": "address"
        },
        {
          "indexed": false,
          "internalType": "uint256",
          "name": "value",
          "type": "uint256"
        }
      ],
      "name": "Transfer",
      "type": "event"
    },
    {
      "anonymous": false,
      "inputs": [
        {
          "indexed": false,
          "internalType": "address",
          "name": "account",
          "type": "address"
        }
      ],
      "name": "Unpaused",
      "type": "event"
    },
    {
      "inputs": [],
      "name": "DEFAULT_ADMIN_ROLE",
      "outputs": [
        {
          "internalType": "bytes32",
          "name": "",
          "type": "bytes32"
        }
      ],
      "stateMutability": "view",
      "type": "function",
      "constant": true
    },
    {
      "inputs": [],
      "name": "MINTER_ROLE",
      "outputs": [
        {
          "internalType": "bytes32",
          "name": "",
          "type": "bytes32"
        }
      ],
      "stateMutability": "view",
      "type": "function",
      "constant": true
    },
    {
      "inputs": [],
      "name": "PAUSER_ROLE",
      "outputs": [
        {
          "internalType": "bytes32",
          "name": "",
          "type": "bytes32"
        }
      ],
      "stateMutability": "view",
      "type": "function",
      "constant": true
    },
    {
      "inputs": [
        {
          "internalType": "address",
          "name": "owner",
          "type": "address"
        },
        {
          "internalType": "address",
          "name": "spender",
          "type": "address"
        }
      ],
      "name": "allowance",
      "outputs": [
        {
          "internalType": "uint256",
          "name": "",
          "type": "uint256"
        }
      ],
      "stateMutability": "view",
      "type": "function",
      "constant": true
    },
    {
      "inputs": [
        {
          "internalType": "address",
          "name": "spender",
          "type": "address"
        },
        {
          "internalType": "uint256",
          "name": "amount",
          "type": "uint256"
        }
      ],
      "name": "approve",
      "outputs": [
        {
          "internalType": "bool",
          "name": "",
          "type": "bool"
        }
      ],
      "stateMutability": "nonpayable",
      "type": "function"
    },
    {
      "inputs": [
        {
          "internalType": "address",
          "name": "account",
          "type": "address"
        }
      ],
      "name": "balanceOf",
      "outputs": [
        {
          "internalType": "uint256",
          "name": "",
          "type": "uint256"
        }
      ],
      "stateMutability": "view",
      "type": "function",
      "constant": true
    },
    {
      "inputs": [
        {
          "internalType": "uint256",
          "name": "amount",
          "type": "uint256"
        }
      ],
      "name": "burn",
      "outputs": [],
      "stateMutability": "nonpayable",
      "type": "function"
    },
    {
      "inputs": [
        {
          "internalType": "address",
          "name": "account",
          "type": "address"
        },
        {
          "internalType": "uint256",
          "name": "amount",
          "type": "uint256"
        }
      ],
      "name": "burnFrom",
      "outputs": [],
      "stateMutability": "nonpayable",
      "type": "function"
    },
    {
      "inputs": [],
      "name": "decimals",
      "outputs": [
        {
          "internalType": "uint8",
          "name": "",
          "type": "uint8"
        }
      ],
      "stateMutability": "view",
      "type": "function",
      "constant": true
    },
    {
      "inputs": [
        {
          "internalType": "address",
          "name": "spender",
          "type": "address"
        },
        {
          "internalType": "uint256",
          "name": "subtractedValue",
          "type": "uint256"
        }
      ],
      "name": "decreaseAllowance",
      "outputs": [
        {
          "internalType": "bool",
          "name": "",
          "type": "bool"
        }
      ],
      "stateMutability": "nonpayable",
      "type": "function"
    },
    {
      "inputs": [
        {
          "internalType": "bytes32",
          "name": "role",
          "type": "bytes32"
        }
      ],
      "name": "getRoleAdmin",
      "outputs": [
        {
          "internalType": "bytes32",
          "name": "",
          "type": "bytes32"
        }
      ],
      "stateMutability": "view",
      "type": "function",
      "constant": true
    },
    {
      "inputs": [
        {
          "internalType": "bytes32",
          "name": "role",
          "type": "bytes32"
        },
        {
          "internalType": "address",
          "name": "account",
          "type": "address"
        }
      ],
      "name": "grantRole",
      "outputs": [],
      "stateMutability": "nonpayable",
      "type": "function"
    },
    {
      "inputs": [
        {
          "internalType": "bytes32",
          "name": "role",
          "type": "bytes32"
        },
        {
          "internalType": "address",
          "name": "account",
          "type": "address"
        }
      ],
      "name": "hasRole",
      "outputs": [
        {
          "internalType": "bool",
          "name": "",
          "type": "bool"
        }
      ],
      "stateMutability": "view",
      "type": "function",
      "constant": true
    },
    {
      "inputs": [
        {
          "internalType": "address",
          "name": "spender",
          "type": "address"
        },
        {
          "internalType": "uint256",
          "name": "addedValue",
          "type": "uint256"
        }
      ],
      "name": "increaseAllowance",
      "outputs": [
        {
          "internalType": "bool",
          "name": "",
          "type": "bool"
        }
      ],
      "stateMutability": "nonpayable",
      "type": "function"
    },
    {
      "inputs": [],
      "name": "name",
      "outputs": [
        {
          "internalType": "string",
          "name": "",
          "type": "string"
        }
      ],
      "stateMutability": "view",
      "type": "function",
      "constant": true
    },
    {
      "inputs": [],
      "name": "paused",
      "outputs": [
        {
          "internalType": "bool",
          "name": "",
          "type": "bool"
        }
      ],
      "stateMutability": "view",
      "type": "function",
      "constant": true
    },
    {
      "inputs": [
        {
          "internalType": "bytes32",
          "name": "role",
          "type": "bytes32"
        },
        {
          "internalType": "address",
          "name": "account",
          "type": "address"
        }
      ],
      "name": "renounceRole",
      "outputs": [],
      "stateMutability": "nonpayable",
      "type": "function"
    },
    {
      "inputs": [
        {
          "internalType": "bytes32",
          "name": "role",
          "type": "bytes32"
        },
        {
          "internalType": "address",
          "name": "account",
          "type": "address"
        }
      ],
      "name": "revokeRole",
      "outputs": [],
      "stateMutability": "nonpayable",
      "type": "function"
    },
    {
      "inputs": [
        {
          "internalType": "bytes4",
          "name": "interfaceId",
          "type": "bytes4"
        }
      ],
      "name": "supportsInterface",
      "outputs": [
        {
          "internalType": "bool",
          "name": "",
          "type": "bool"
        }
      ],
      "stateMutability": "view",
      "type": "function",
      "constant": true
    },
    {
      "inputs": [],
      "name": "symbol",
      "outputs": [
        {
          "internalType": "string",
          "name": "",
          "type": "string"
        }
      ],
      "stateMutability": "view",
      "type": "function",
      "constant": true
    },
    {
      "inputs": [],
      "name": "totalSupply",
      "outputs": [
        {
          "internalType": "uint256",
          "name": "",
          "type": "uint256"
        }
      ],
      "stateMutability": "view",
      "type": "function",
      "constant": true
    },
    {
      "inputs": [
        {
          "internalType": "address",
          "name": "recipient",
          "type": "address"
        },
        {
          "internalType": "uint256",
          "name": "amount",
          "type": "uint256"
        }
      ],
      "name": "transfer",
      "outputs": [
        {
          "internalType": "bool",
          "name": "",
          "type": "bool"
        }
      ],
      "stateMutability": "nonpayable",
      "type": "function"
    },
    {
      "inputs": [
        {
          "internalType": "address",
          "name": "sender",
          "type": "address"
        },
        {
          "internalType": "address",
          "name": "recipient",
          "type": "address"
        },
        {
          "internalType": "uint256",
          "name": "amount",
          "type": "uint256"
        }
      ],
      "name": "transferFrom",
      "outputs": [
        {
          "internalType": "bool",
          "name": "",
          "type": "bool"
        }
      ],
      "stateMutability": "nonpayable",
      "type": "function"
    },
    {
      "inputs": [],
      "name": "pause",
      "outputs": [],
      "stateMutability": "nonpayable",
      "type": "function"
    },
    {
      "inputs": [],
      "name": "unpause",
      "outputs": [],
      "stateMutability": "nonpayable",
      "type": "function"
    },
    {
      "inputs": [
        {
          "internalType": "address",
          "name": "to",
          "type": "address"
        },
        {
          "internalType": "uint256",
          "name": "amount",
          "type": "uint256"
        }
      ],
      "name": "mint",
      "outputs": [],
      "stateMutability": "nonpayable",
      "type": "function"
    }
  ],
  "bytecode": "0x60806040523480156200001157600080fd5b506040518060400160405280600e81526020016d29b0b2b73a34b99023bab63232b760911b8152506040518060400160405280600381526020016253444760e81b81525081600390805190602001906200006d92919062000320565b5080516200008390600490602084019062000320565b50506005805460ff19169055506200009d6000336200012c565b620000c97f65d7a28e3265b37a6474929f336521b332c1681b933f6cb9f3376673440d862a336200012c565b620000fa33620000d86200013c565b620000e590600a62000498565b620000f490620186a062000590565b62000141565b620001267f9f2df0fed2c77648de5860a4cc508cd0818c85b8b8a1ab4ceeef8d981c8956a6336200012c565b62000605565b62000138828262000215565b5050565b601290565b6001600160a01b038216620001735760405162461bcd60e51b81526004016200016a90620003f0565b60405180910390fd5b6200018160008383620002a1565b806002600082825462000195919062000430565b90915550506001600160a01b03821660009081526020819052604081208054839290620001c490849062000430565b90915550506040516001600160a01b038316906000907fddf252ad1be2c89b69c2b068fc378daa952ba7f163c4a11628f55a4df523b3ef906200020990859062000427565b60405180910390a35050565b620002218282620002e8565b620001385760008281526006602090815260408083206001600160a01b03851684529091529020805460ff191660011790556200025d62000313565b6001600160a01b0316816001600160a01b0316837f2f8788117e7eff1d82e926ec794901d17c78024a50270940304540a733656f0d60405160405180910390a45050565b620002ab62000317565b15620002cb5760405162461bcd60e51b81526004016200016a90620003c6565b620002e3838383620002e360201b620006bf1760201c565b505050565b60009182526006602090815260408084206001600160a01b0393909316845291905290205460ff1690565b3390565b60055460ff1690565b8280546200032e90620005b2565b90600052602060002090601f0160209004810192826200035257600085556200039d565b82601f106200036d57805160ff19168380011785556200039d565b828001600101855582156200039d579182015b828111156200039d57825182559160200191906001019062000380565b50620003ab929150620003af565b5090565b5b80821115620003ab5760008155600101620003b0565b60208082526010908201526f14185d5cd8589b194e881c185d5cd95960821b604082015260600190565b6020808252601f908201527f45524332303a206d696e7420746f20746865207a65726f206164647265737300604082015260600190565b90815260200190565b60008219821115620004465762000446620005ef565b500190565b80825b60018086116200045f57506200048f565b818704821115620004745762000474620005ef565b808616156200048257918102915b9490941c9380026200044e565b94509492505050565b6000620004ac60001960ff851684620004b3565b9392505050565b600082620004c457506001620004ac565b81620004d357506000620004ac565b8160018114620004ec5760028114620004f7576200052b565b6001915050620004ac565b60ff8411156200050b576200050b620005ef565b6001841b915084821115620005245762000524620005ef565b50620004ac565b5060208310610133831016604e8410600b841016171562000563575081810a838111156200055d576200055d620005ef565b620004ac565b6200057284848460016200044b565b808604821115620005875762000587620005ef565b02949350505050565b6000816000190483118215151615620005ad57620005ad620005ef565b500290565b600281046001821680620005c757607f821691505b60208210811415620005e957634e487b7160e01b600052602260045260246000fd5b50919050565b634e487b7160e01b600052601160045260246000fd5b6114a080620006156000396000f3fe608060405234801561001057600080fd5b506004361061018e5760003560e01c80635c975abb116100de578063a217fddf11610097578063d539139311610071578063d53913931461031c578063d547741f14610324578063dd62ed3e14610337578063e63ab1e91461034a5761018e565b8063a217fddf146102ee578063a457c2d7146102f6578063a9059cbb146103095761018e565b80635c975abb1461029d57806370a08231146102a557806379cc6790146102b85780638456cb59146102cb57806391d14854146102d357806395d89b41146102e65761018e565b80632f2ff15d1161014b5780633950935111610125578063395093511461025c5780633f4ba83a1461026f57806340c10f191461027757806342966c681461028a5761018e565b80632f2ff15d1461021f578063313ce5671461023457806336568abe146102495761018e565b806301ffc9a71461019357806306fdde03146101bc578063095ea7b3146101d157806318160ddd146101e457806323b872dd146101f9578063248a9ca31461020c575b600080fd5b6101a66101a1366004610f14565b610352565b6040516101b39190610f50565b60405180910390f35b6101c461037f565b6040516101b39190610f64565b6101a66101df366004610eb1565b610411565b6101ec61042e565b6040516101b39190610f5b565b6101a6610207366004610e76565b610434565b6101ec61021a366004610eda565b6104d4565b61023261022d366004610ef2565b6104e9565b005b61023c610527565b6040516101b391906113dc565b610232610257366004610ef2565b61052c565b6101a661026a366004610eb1565b61056e565b6102326105bd565b610232610285366004610eb1565b6105fa565b610232610298366004610eda565b610637565b6101a661064b565b6101ec6102b3366004610e23565b610654565b6102326102c6366004610eb1565b61066f565b6102326106c4565b6101a66102e1366004610ef2565b6106ff565b6101c461072a565b6101ec610739565b6101a6610304366004610eb1565b61073e565b6101a6610317366004610eb1565b6107b9565b6101ec6107cd565b610232610332366004610ef2565b6107f1565b6101ec610345366004610e44565b610819565b6101ec610844565b60006001600160e01b03198216637965db0b60e01b1480610377575061037782610868565b90505b919050565b60606003805461038e90611419565b80601f01602080910402602001604051908101604052809291908181526020018280546103ba90611419565b80156104075780601f106103dc57610100808354040283529160200191610407565b820191906000526020600020905b8154815290600101906020018083116103ea57829003601f168201915b5050505050905090565b600061042561041e610881565b8484610885565b50600192915050565b60025490565b6000610441848484610939565b6001600160a01b038416600090815260016020526040812081610462610881565b6001600160a01b03166001600160a01b03168152602001908152602001600020549050828110156104ae5760405162461bcd60e51b81526004016104a5906111bb565b60405180910390fd5b6104c9856104ba610881565b6104c48685611402565b610885565b506001949350505050565b60009081526006602052604090206001015490565b6104fd6104f5836104d4565b6102e1610881565b6105195760405162461bcd60e51b81526004016104a590610ffa565b6105238282610a61565b5050565b601290565b610534610881565b6001600160a01b0316816001600160a01b0316146105645760405162461bcd60e51b81526004016104a590611356565b6105238282610ae8565b600061042561057b610881565b848460016000610589610881565b6001600160a01b03908116825260208083019390935260409182016000908120918b16815292529020546104c491906113ea565b6105e77f65d7a28e3265b37a6474929f336521b332c1681b933f6cb9f3376673440d862a336106ff565b6105f057600080fd5b6105f8610b6d565b565b6106247f9f2df0fed2c77648de5860a4cc508cd0818c85b8b8a1ab4ceeef8d981c8956a6336106ff565b61062d57600080fd5b6105238282610bdb565b610648610642610881565b82610c9b565b50565b60055460ff1690565b6001600160a01b031660009081526020819052604090205490565b600061067d83610345610881565b90508181101561069f5760405162461bcd60e51b81526004016104a590611203565b6106b5836106ab610881565b6104c48585611402565b6106bf8383610c9b565b505050565b6106ee7f65d7a28e3265b37a6474929f336521b332c1681b933f6cb9f3376673440d862a336106ff565b6106f757600080fd5b6105f8610d81565b60009182526006602090815260408084206001600160a01b0393909316845291905290205460ff1690565b60606004805461038e90611419565b600081565b6000806001600061074d610881565b6001600160a01b03908116825260208083019390935260409182016000908120918816815292529020549050828110156107995760405162461bcd60e51b81526004016104a590611311565b6107af6107a4610881565b856104c48685611402565b5060019392505050565b60006104256107c6610881565b8484610939565b7f9f2df0fed2c77648de5860a4cc508cd0818c85b8b8a1ab4ceeef8d981c8956a681565b6107fd6104f5836104d4565b6105645760405162461bcd60e51b81526004016104a590611141565b6001600160a01b03918216600090815260016020908152604080832093909416825291909152205490565b7f65d7a28e3265b37a6474929f336521b332c1681b933f6cb9f3376673440d862a81565b6001600160e01b031981166301ffc9a760e01b14919050565b3390565b6001600160a01b0383166108ab5760405162461bcd60e51b81526004016104a5906112cd565b6001600160a01b0382166108d15760405162461bcd60e51b81526004016104a5906110b9565b6001600160a01b0380841660008181526001602090815260408083209487168084529490915290819020849055517f8c5be1e5ebec7d5bd14f71427d1e84f3dd0314c0f7b2291e5b200ac8c7c3b9259061092c908590610f5b565b60405180910390a3505050565b6001600160a01b03831661095f5760405162461bcd60e51b81526004016104a590611288565b6001600160a01b0382166109855760405162461bcd60e51b81526004016104a590610fb7565b610990838383610ddc565b6001600160a01b038316600090815260208190526040902054818110156109c95760405162461bcd60e51b81526004016104a5906110fb565b6109d38282611402565b6001600160a01b038086166000908152602081905260408082209390935590851681529081208054849290610a099084906113ea565b92505081905550826001600160a01b0316846001600160a01b03167fddf252ad1be2c89b69c2b068fc378daa952ba7f163c4a11628f55a4df523b3ef84604051610a539190610f5b565b60405180910390a350505050565b610a6b82826106ff565b6105235760008281526006602090815260408083206001600160a01b03851684529091529020805460ff19166001179055610aa4610881565b6001600160a01b0316816001600160a01b0316837f2f8788117e7eff1d82e926ec794901d17c78024a50270940304540a733656f0d60405160405180910390a45050565b610af282826106ff565b156105235760008281526006602090815260408083206001600160a01b03851684529091529020805460ff19169055610b29610881565b6001600160a01b0316816001600160a01b0316837ff6391f5c32d9c69d2a47ea670b442974b53935d1edc7fd64eb21e047a839171b60405160405180910390a45050565b610b7561064b565b610b915760405162461bcd60e51b81526004016104a590611049565b6005805460ff191690557f5db9ee0a495bf2e6ff9c91a7834c1ba4fdd244a5e8aa4e537bd38aeae4b073aa610bc4610881565b604051610bd19190610f3c565b60405180910390a1565b6001600160a01b038216610c015760405162461bcd60e51b81526004016104a5906113a5565b610c0d60008383610ddc565b8060026000828254610c1f91906113ea565b90915550506001600160a01b03821660009081526020819052604081208054839290610c4c9084906113ea565b90915550506040516001600160a01b038316906000907fddf252ad1be2c89b69c2b068fc378daa952ba7f163c4a11628f55a4df523b3ef90610c8f908590610f5b565b60405180910390a35050565b6001600160a01b038216610cc15760405162461bcd60e51b81526004016104a590611247565b610ccd82600083610ddc565b6001600160a01b03821660009081526020819052604090205481811015610d065760405162461bcd60e51b81526004016104a590611077565b610d108282611402565b6001600160a01b03841660009081526020819052604081209190915560028054849290610d3e908490611402565b90915550506040516000906001600160a01b038516907fddf252ad1be2c89b69c2b068fc378daa952ba7f163c4a11628f55a4df523b3ef9061092c908690610f5b565b610d8961064b565b15610da65760405162461bcd60e51b81526004016104a590611191565b6005805460ff191660011790557f62e78cea01bee320cd4e420270b5ea74000d11b0c9f74754ebdbfc544b05a258610bc4610881565b610de461064b565b15610e015760405162461bcd60e51b81526004016104a590611191565b6106bf8383836106bf565b80356001600160a01b038116811461037a57600080fd5b600060208284031215610e34578081fd5b610e3d82610e0c565b9392505050565b60008060408385031215610e56578081fd5b610e5f83610e0c565b9150610e6d60208401610e0c565b90509250929050565b600080600060608486031215610e8a578081fd5b610e9384610e0c565b9250610ea160208501610e0c565b9150604084013590509250925092565b60008060408385031215610ec3578182fd5b610ecc83610e0c565b946020939093013593505050565b600060208284031215610eeb578081fd5b5035919050565b60008060408385031215610f04578182fd5b82359150610e6d60208401610e0c565b600060208284031215610f25578081fd5b81356001600160e01b031981168114610e3d578182fd5b6001600160a01b0391909116815260200190565b901515815260200190565b90815260200190565b6000602080835283518082850152825b81811015610f9057858101830151858201604001528201610f74565b81811115610fa15783604083870101525b50601f01601f1916929092016040019392505050565b60208082526023908201527f45524332303a207472616e7366657220746f20746865207a65726f206164647260408201526265737360e81b606082015260800190565b6020808252602f908201527f416363657373436f6e74726f6c3a2073656e646572206d75737420626520616e60408201526e0818591b5a5b881d1bc819dc985b9d608a1b606082015260800190565b60208082526014908201527314185d5cd8589b194e881b9bdd081c185d5cd95960621b604082015260600190565b60208082526022908201527f45524332303a206275726e20616d6f756e7420657863656564732062616c616e604082015261636560f01b606082015260800190565b60208082526022908201527f45524332303a20617070726f766520746f20746865207a65726f206164647265604082015261737360f01b606082015260800190565b60208082526026908201527f45524332303a207472616e7366657220616d6f756e7420657863656564732062604082015265616c616e636560d01b606082015260800190565b60208082526030908201527f416363657373436f6e74726f6c3a2073656e646572206d75737420626520616e60408201526f2061646d696e20746f207265766f6b6560801b606082015260800190565b60208082526010908201526f14185d5cd8589b194e881c185d5cd95960821b604082015260600190565b60208082526028908201527f45524332303a207472616e7366657220616d6f756e74206578636565647320616040820152676c6c6f77616e636560c01b606082015260800190565b60208082526024908201527f45524332303a206275726e20616d6f756e74206578636565647320616c6c6f77604082015263616e636560e01b606082015260800190565b60208082526021908201527f45524332303a206275726e2066726f6d20746865207a65726f206164647265736040820152607360f81b606082015260800190565b60208082526025908201527f45524332303a207472616e736665722066726f6d20746865207a65726f206164604082015264647265737360d81b606082015260800190565b60208082526024908201527f45524332303a20617070726f76652066726f6d20746865207a65726f206164646040820152637265737360e01b606082015260800190565b60208082526025908201527f45524332303a2064656372656173656420616c6c6f77616e63652062656c6f77604082015264207a65726f60d81b606082015260800190565b6020808252602f908201527f416363657373436f6e74726f6c3a2063616e206f6e6c792072656e6f756e636560408201526e103937b632b9903337b91039b2b63360891b606082015260800190565b6020808252601f908201527f45524332303a206d696e7420746f20746865207a65726f206164647265737300604082015260600190565b60ff91909116815260200190565b600082198211156113fd576113fd611454565b500190565b60008282101561141457611414611454565b500390565b60028104600182168061142d57607f821691505b6020821081141561144e57634e487b7160e01b600052602260045260246000fd5b50919050565b634e487b7160e01b600052601160045260246000fdfea26469706673582212201c6a5bf94523ab9c6b9c1754a1f1c63242c498be42ea8191ec0f653e5f3e162064736f6c63430008000033",
  "immutableReferences": {},
  "source": "// SPDX-License-Identifier: MIT\r\npragma solidity ^0.8.0;\r\n\r\nimport \"@openzeppelin/contracts/token/ERC20/ERC20.sol\";\r\nimport \"@openzeppelin/contracts/token/ERC20/extensions/ERC20Burnable.sol\";\r\nimport \"@openzeppelin/contracts/security/Pausable.sol\";\r\nimport \"@openzeppelin/contracts/access/AccessControl.sol\";\r\n\r\ncontract SaentisGulden is ERC20, ERC20Burnable, Pausable, AccessControl {\r\n    bytes32 public constant PAUSER_ROLE = keccak256(\"PAUSER_ROLE\");\r\n    bytes32 public constant MINTER_ROLE = keccak256(\"MINTER_ROLE\");\r\n\r\n    constructor() ERC20(\"Saentis Gulden\", \"SDG\") {\r\n        _setupRole(DEFAULT_ADMIN_ROLE, msg.sender);\r\n        _setupRole(PAUSER_ROLE, msg.sender);\r\n        _mint(msg.sender, 100000 * 10 ** decimals());\r\n        _setupRole(MINTER_ROLE, msg.sender);\r\n    }\r\n\r\n    function pause() public {\r\n        require(hasRole(PAUSER_ROLE, msg.sender));\r\n        _pause();\r\n    }\r\n\r\n    function unpause() public {\r\n        require(hasRole(PAUSER_ROLE, msg.sender));\r\n        _unpause();\r\n    }\r\n\r\n    function mint(address to, uint256 amount) public {\r\n        require(hasRole(MINTER_ROLE, msg.sender));\r\n        _mint(to, amount);\r\n    }\r\n\r\n    function _beforeTokenTransfer(address from, address to, uint256 amount)\r\n        internal\r\n        whenNotPaused\r\n        override\r\n    {\r\n        super._beforeTokenTransfer(from, to, amount);\r\n    }\r\n}\r\n",
  "sourcePath": "C:/Dev/Awl/saentis-gulden-token-contract/contracts/SaentisGulden.sol",
  "compiler": {
    "name": "solc",
    "version": "0.8.0+commit.c7dfd78e.Emscripten.clang"
  },
  "schemaVersion": "3.4.0",
  "updatedAt": "2021-04-25T08:43:52.470Z",
  "networkType": "ethereum",
  "devdoc": {
    "kind": "dev",
    "methods": {
      "allowance(address,address)": {
        "details": "See {IERC20-allowance}."
      },
      "approve(address,uint256)": {
        "details": "See {IERC20-approve}. Requirements: - `spender` cannot be the zero address."
      },
      "balanceOf(address)": {
        "details": "See {IERC20-balanceOf}."
      },
      "burn(uint256)": {
        "details": "Destroys `amount` tokens from the caller. See {ERC20-_burn}."
      },
      "burnFrom(address,uint256)": {
        "details": "Destroys `amount` tokens from `account`, deducting from the caller's allowance. See {ERC20-_burn} and {ERC20-allowance}. Requirements: - the caller must have allowance for ``accounts``'s tokens of at least `amount`."
      },
      "decimals()": {
        "details": "Returns the number of decimals used to get its user representation. For example, if `decimals` equals `2`, a balance of `505` tokens should be displayed to a user as `5,05` (`505 / 10 ** 2`). Tokens usually opt for a value of 18, imitating the relationship between Ether and Wei. This is the value {ERC20} uses, unless this function is overloaded; NOTE: This information is only used for _display_ purposes: it in no way affects any of the arithmetic of the contract, including {IERC20-balanceOf} and {IERC20-transfer}."
      },
      "decreaseAllowance(address,uint256)": {
        "details": "Atomically decreases the allowance granted to `spender` by the caller. This is an alternative to {approve} that can be used as a mitigation for problems described in {IERC20-approve}. Emits an {Approval} event indicating the updated allowance. Requirements: - `spender` cannot be the zero address. - `spender` must have allowance for the caller of at least `subtractedValue`."
      },
      "getRoleAdmin(bytes32)": {
        "details": "Returns the admin role that controls `role`. See {grantRole} and {revokeRole}. To change a role's admin, use {_setRoleAdmin}."
      },
      "grantRole(bytes32,address)": {
        "details": "Grants `role` to `account`. If `account` had not been already granted `role`, emits a {RoleGranted} event. Requirements: - the caller must have ``role``'s admin role."
      },
      "hasRole(bytes32,address)": {
        "details": "Returns `true` if `account` has been granted `role`."
      },
      "increaseAllowance(address,uint256)": {
        "details": "Atomically increases the allowance granted to `spender` by the caller. This is an alternative to {approve} that can be used as a mitigation for problems described in {IERC20-approve}. Emits an {Approval} event indicating the updated allowance. Requirements: - `spender` cannot be the zero address."
      },
      "name()": {
        "details": "Returns the name of the token."
      },
      "paused()": {
        "details": "Returns true if the contract is paused, and false otherwise."
      },
      "renounceRole(bytes32,address)": {
        "details": "Revokes `role` from the calling account. Roles are often managed via {grantRole} and {revokeRole}: this function's purpose is to provide a mechanism for accounts to lose their privileges if they are compromised (such as when a trusted device is misplaced). If the calling account had been granted `role`, emits a {RoleRevoked} event. Requirements: - the caller must be `account`."
      },
      "revokeRole(bytes32,address)": {
        "details": "Revokes `role` from `account`. If `account` had been granted `role`, emits a {RoleRevoked} event. Requirements: - the caller must have ``role``'s admin role."
      },
      "supportsInterface(bytes4)": {
        "details": "See {IERC165-supportsInterface}."
      },
      "symbol()": {
        "details": "Returns the symbol of the token, usually a shorter version of the name."
      },
      "totalSupply()": {
        "details": "See {IERC20-totalSupply}."
      },
      "transfer(address,uint256)": {
        "details": "See {IERC20-transfer}. Requirements: - `recipient` cannot be the zero address. - the caller must have a balance of at least `amount`."
      },
      "transferFrom(address,address,uint256)": {
        "details": "See {IERC20-transferFrom}. Emits an {Approval} event indicating the updated allowance. This is not required by the EIP. See the note at the beginning of {ERC20}. Requirements: - `sender` and `recipient` cannot be the zero address. - `sender` must have a balance of at least `amount`. - the caller must have allowance for ``sender``'s tokens of at least `amount`."
      }
    },
    "version": 1
  },
  "userdoc": {
    "kind": "user",
    "methods": {},
    "version": 1
  }
}